{
  "_format": "hh-sol-artifact-1",
  "contractName": "DisciplineVault",
  "sourceName": "contracts/DisciplineVault.sol",
  "abi": [
    {
      "inputs": [
        {
          "internalType": "address",
          "name": "_usdc",
          "type": "address"
        },
        {
          "internalType": "address",
          "name": "_yoVault",
          "type": "address"
        }
      ],
      "stateMutability": "nonpayable",
      "type": "constructor"
    },
    {
      "anonymous": false,
      "inputs": [
        {
          "indexed": true,
          "internalType": "address",
          "name": "user",
          "type": "address"
        },
        {
          "indexed": false,
          "internalType": "uint256",
          "name": "usdcAmount",
          "type": "uint256"
        },
        {
          "indexed": false,
          "internalType": "uint256",
          "name": "shares",
          "type": "uint256"
        }
      ],
      "name": "Deposited",
      "type": "event"
    },
    {
      "anonymous": false,
      "inputs": [
        {
          "indexed": false,
          "internalType": "uint256",
          "name": "amount",
          "type": "uint256"
        }
      ],
      "name": "PenaltyDistributed",
      "type": "event"
    },
    {
      "anonymous": false,
      "inputs": [
        {
          "indexed": true,
          "internalType": "address",
          "name": "user",
          "type": "address"
        },
        {
          "indexed": false,
          "internalType": "uint256",
          "name": "usdcAmount",
          "type": "uint256"
        },
        {
          "indexed": false,
          "internalType": "bool",
          "name": "early",
          "type": "bool"
        }
      ],
      "name": "Withdrawn",
      "type": "event"
    },
    {
      "inputs": [],
      "name": "LOCK_PERIOD",
      "outputs": [
        {
          "internalType": "uint256",
          "name": "",
          "type": "uint256"
        }
      ],
      "stateMutability": "view",
      "type": "function"
    },
    {
      "inputs": [],
      "name": "PENALTY_PERCENT",
      "outputs": [
        {
          "internalType": "uint256",
          "name": "",
          "type": "uint256"
        }
      ],
      "stateMutability": "view",
      "type": "function"
    },
    {
      "inputs": [],
      "name": "PRECISION",
      "outputs": [
        {
          "internalType": "uint256",
          "name": "",
          "type": "uint256"
        }
      ],
      "stateMutability": "view",
      "type": "function"
    },
    {
      "inputs": [],
      "name": "accRewardPerShare",
      "outputs": [
        {
          "internalType": "uint256",
          "name": "",
          "type": "uint256"
        }
      ],
      "stateMutability": "view",
      "type": "function"
    },
    {
      "inputs": [],
      "name": "claimRewards",
      "outputs": [],
      "stateMutability": "nonpayable",
      "type": "function"
    },
    {
      "inputs": [
        {
          "internalType": "uint256",
          "name": "usdcAmount",
          "type": "uint256"
        }
      ],
      "name": "deposit",
      "outputs": [],
      "stateMutability": "nonpayable",
      "type": "function"
    },
    {
      "inputs": [
        {
          "internalType": "uint256",
          "name": "",
          "type": "uint256"
        }
      ],
      "name": "depositors",
      "outputs": [
        {
          "internalType": "address",
          "name": "",
          "type": "address"
        }
      ],
      "stateMutability": "view",
      "type": "function"
    },
    {
      "inputs": [],
      "name": "getDepositorCount",
      "outputs": [
        {
          "internalType": "uint256",
          "name": "",
          "type": "uint256"
        }
      ],
      "stateMutability": "view",
      "type": "function"
    },
    {
      "inputs": [
        {
          "internalType": "address",
          "name": "userAddr",
          "type": "address"
        }
      ],
      "name": "getPendingReward",
      "outputs": [
        {
          "internalType": "uint256",
          "name": "",
          "type": "uint256"
        }
      ],
      "stateMutability": "view",
      "type": "function"
    },
    {
      "inputs": [
        {
          "internalType": "address",
          "name": "userAddr",
          "type": "address"
        }
      ],
      "name": "getTimeRemaining",
      "outputs": [
        {
          "internalType": "uint256",
          "name": "",
          "type": "uint256"
        }
      ],
      "stateMutability": "view",
      "type": "function"
    },
    {
      "inputs": [
        {
          "internalType": "address",
          "name": "userAddr",
          "type": "address"
        }
      ],
      "name": "getUserShares",
      "outputs": [
        {
          "internalType": "uint256",
          "name": "",
          "type": "uint256"
        }
      ],
      "stateMutability": "view",
      "type": "function"
    },
    {
      "inputs": [
        {
          "internalType": "address",
          "name": "",
          "type": "address"
        }
      ],
      "name": "isDepositor",
      "outputs": [
        {
          "internalType": "bool",
          "name": "",
          "type": "bool"
        }
      ],
      "stateMutability": "view",
      "type": "function"
    },
    {
      "inputs": [
        {
          "internalType": "address",
          "name": "userAddr",
          "type": "address"
        }
      ],
      "name": "isLocked",
      "outputs": [
        {
          "internalType": "bool",
          "name": "",
          "type": "bool"
        }
      ],
      "stateMutability": "view",
      "type": "function"
    },
    {
      "inputs": [],
      "name": "pendingRewards",
      "outputs": [
        {
          "internalType": "uint256",
          "name": "",
          "type": "uint256"
        }
      ],
      "stateMutability": "view",
      "type": "function"
    },
    {
      "inputs": [],
      "name": "totalShares",
      "outputs": [
        {
          "internalType": "uint256",
          "name": "",
          "type": "uint256"
        }
      ],
      "stateMutability": "view",
      "type": "function"
    },
    {
      "inputs": [],
      "name": "usdc",
      "outputs": [
        {
          "internalType": "contract IERC20",
          "name": "",
          "type": "address"
        }
      ],
      "stateMutability": "view",
      "type": "function"
    },
    {
      "inputs": [
        {
          "internalType": "address",
          "name": "",
          "type": "address"
        }
      ],
      "name": "users",
      "outputs": [
        {
          "internalType": "uint256",
          "name": "shares",
          "type": "uint256"
        },
        {
          "internalType": "uint256",
          "name": "depositTime",
          "type": "uint256"
        },
        {
          "internalType": "uint256",
          "name": "rewardDebt",
          "type": "uint256"
        }
      ],
      "stateMutability": "view",
      "type": "function"
    },
    {
      "inputs": [
        {
          "internalType": "uint256",
          "name": "shareAmount",
          "type": "uint256"
        }
      ],
      "name": "withdraw",
      "outputs": [],
      "stateMutability": "nonpayable",
      "type": "function"
    },
    {
      "inputs": [],
      "name": "yoVault",
      "outputs": [
        {
          "internalType": "contract IYoVault",
          "name": "",
          "type": "address"
        }
      ],
      "stateMutability": "view",
      "type": "function"
    }
  ],
  "bytecode": "0x60c060405234801561001057600080fd5b5060405161184d38038061184d83398181016040528101906100329190610104565b8173ffffffffffffffffffffffffffffffffffffffff1660808173ffffffffffffffffffffffffffffffffffffffff16815250508073ffffffffffffffffffffffffffffffffffffffff1660a08173ffffffffffffffffffffffffffffffffffffffff16815250505050610144565b600080fd5b600073ffffffffffffffffffffffffffffffffffffffff82169050919050565b60006100d1826100a6565b9050919050565b6100e1816100c6565b81146100ec57600080fd5b50565b6000815190506100fe816100d8565b92915050565b6000806040838503121561011b5761011a6100a1565b5b6000610129858286016100ef565b925050602061013a858286016100ef565b9150509250929050565b60805160a0516116ba6101936000396000818161044c0152818161064501528181610a8b01528181610b100152610fa5015260008181610815015281816109ae0152610a4f01526116ba6000f3fe608060405234801561001057600080fd5b50600436106101215760003560e01c80634df9d6ba116100ad578063b6b55f2511610071578063b6b55f2514610310578063ba0cb22b1461032c578063e4b2fb791461035c578063eded3fda1461038c578063f17bb462146103aa57610121565b80634df9d6ba146102545780638fa0401614610284578063939d6237146102a2578063a87430ba146102c0578063aaf5eb68146102f257610121565b80632f70d1ba116100f45780632f70d1ba146101ae578063372500ab146101de5780633a98ef39146101e85780633e413bee146102065780634a4fbeec1461022457610121565b80630b0ad26a146101265780631820cabb146101565780631b8d2e9d146101745780632e1a7d4d14610192575b600080fd5b610140600480360381019061013b91906110ae565b6103c8565b60405161014d91906110f4565b60405180910390f35b61015e610443565b60405161016b91906110f4565b60405180910390f35b61017c61044a565b604051610189919061116e565b60405180910390f35b6101ac60048036038101906101a791906111b5565b61046e565b005b6101c860048036038101906101c391906110ae565b61073b565b6040516101d591906111fd565b60405180910390f35b6101e661075b565b005b6101f061080d565b6040516101fd91906110f4565b60405180910390f35b61020e610813565b60405161021b9190611239565b60405180910390f35b61023e600480360381019061023991906110ae565b610837565b60405161024b91906111fd565b60405180910390f35b61026e600480360381019061026991906110ae565b610892565b60405161027b91906110f4565b60405180910390f35b61028c610928565b60405161029991906110f4565b60405180910390f35b6102aa61092d565b6040516102b791906110f4565b60405180910390f35b6102da60048036038101906102d591906110ae565b610933565b6040516102e993929190611254565b60405180910390f35b6102fa61095d565b60405161030791906110f4565b60405180910390f35b61032a600480360381019061032591906111b5565b610969565b005b610346600480360381019061034191906110ae565b610e76565b60405161035391906110f4565b60405180910390f35b610376600480360381019061037191906111b5565b610ec1565b604051610383919061129a565b60405180910390f35b610394610f00565b6040516103a191906110f4565b60405180910390f35b6103b2610f06565b6040516103bf91906110f4565b60405180910390f35b60008062278d006000808573ffffffffffffffffffffffffffffffffffffffff1673ffffffffffffffffffffffffffffffffffffffff1681526020019081526020016000206001015461041b91906112e4565b905080421061042e57600091505061043e565b428161043a9190611318565b9150505b919050565b62278d0081565b7f000000000000000000000000000000000000000000000000000000000000000081565b60008060003373ffffffffffffffffffffffffffffffffffffffff1673ffffffffffffffffffffffffffffffffffffffff168152602001908152602001600020905081816000015410156104f7576040517f08c379a00000000000000000000000000000000000000000000000000000000081526004016104ee906113a9565b60405180910390fd5b61050033610f13565b600062278d00826001015461051591906112e4565b421090506000839050600082156105e257606460058661053591906113c9565b61053f919061143a565b9050808561054d9190611318565b9150846003541180156105605750600081115b156105e157846003546105739190611318565b670de0b6b3a76400008261058791906113c9565b610591919061143a565b600460008282546105a291906112e4565b925050819055507fb7f21a3979c06aa9186f1f30796397c0c1932d680b05eef22f0e3427764bfc7c816040516105d891906110f4565b60405180910390a15b5b848460000160008282546105f69190611318565b92505081905550846003600082825461060f9190611318565b92505081905550670de0b6b3a7640000600454856000015461063191906113c9565b61063b919061143a565b84600201819055507f000000000000000000000000000000000000000000000000000000000000000073ffffffffffffffffffffffffffffffffffffffff1663ba0876528333306040518463ffffffff1660e01b81526004016106a09392919061146b565b6020604051808303816000875af11580156106bf573d6000803e3d6000fd5b505050506040513d601f19601f820116820180604052508101906106e391906114b7565b503373ffffffffffffffffffffffffffffffffffffffff167f2fd83d5e9f5d240bed47a97a24cf354e4047e25edc2da27b01fd95e5e8a0c9a5838560405161072c9291906114e4565b60405180910390a25050505050565b60026020528060005260406000206000915054906101000a900460ff1681565b61076433610f13565b670de0b6b3a76400006004546000803373ffffffffffffffffffffffffffffffffffffffff1673ffffffffffffffffffffffffffffffffffffffff168152602001908152602001600020600001546107bc91906113c9565b6107c6919061143a565b6000803373ffffffffffffffffffffffffffffffffffffffff1673ffffffffffffffffffffffffffffffffffffffff16815260200190815260200160002060020181905550565b60035481565b7f000000000000000000000000000000000000000000000000000000000000000081565b600062278d006000808473ffffffffffffffffffffffffffffffffffffffff1673ffffffffffffffffffffffffffffffffffffffff1681526020019081526020016000206001015461088991906112e4565b42109050919050565b6000806000808473ffffffffffffffffffffffffffffffffffffffff1673ffffffffffffffffffffffffffffffffffffffff168152602001908152602001600020905060008160000154036108eb576000915050610923565b8060020154670de0b6b3a7640000600454836000015461090b91906113c9565b610915919061143a565b61091f9190611318565b9150505b919050565b600581565b60045481565b60006020528060005260406000206000915090508060000154908060010154908060020154905083565b670de0b6b3a764000081565b600081116109ac576040517f08c379a00000000000000000000000000000000000000000000000000000000081526004016109a390611559565b60405180910390fd5b7f000000000000000000000000000000000000000000000000000000000000000073ffffffffffffffffffffffffffffffffffffffff166323b872dd3330846040518463ffffffff1660e01b8152600401610a0993929190611579565b6020604051808303816000875af1158015610a28573d6000803e3d6000fd5b505050506040513d601f19601f82011682018060405250810190610a4c91906115dc565b507f000000000000000000000000000000000000000000000000000000000000000073ffffffffffffffffffffffffffffffffffffffff1663095ea7b37f0000000000000000000000000000000000000000000000000000000000000000836040518363ffffffff1660e01b8152600401610ac8929190611609565b6020604051808303816000875af1158015610ae7573d6000803e3d6000fd5b505050506040513d601f19601f82011682018060405250810190610b0b91906115dc565b5060007f000000000000000000000000000000000000000000000000000000000000000073ffffffffffffffffffffffffffffffffffffffff16636e553f6583306040518363ffffffff1660e01b8152600401610b69929190611632565b6020604051808303816000875af1158015610b88573d6000803e3d6000fd5b505050506040513d601f19601f82011682018060405250810190610bac91906114b7565b9050610bb733610f13565b806000803373ffffffffffffffffffffffffffffffffffffffff1673ffffffffffffffffffffffffffffffffffffffff1681526020019081526020016000206000016000828254610c0891906112e4565b92505081905550426000803373ffffffffffffffffffffffffffffffffffffffff1673ffffffffffffffffffffffffffffffffffffffff16815260200190815260200160002060010181905550670de0b6b3a76400006004546000803373ffffffffffffffffffffffffffffffffffffffff1673ffffffffffffffffffffffffffffffffffffffff16815260200190815260200160002060000154610cad91906113c9565b610cb7919061143a565b6000803373ffffffffffffffffffffffffffffffffffffffff1673ffffffffffffffffffffffffffffffffffffffff168152602001908152602001600020600201819055508060036000828254610d0e91906112e4565b92505081905550600260003373ffffffffffffffffffffffffffffffffffffffff1673ffffffffffffffffffffffffffffffffffffffff16815260200190815260200160002060009054906101000a900460ff16610e22576001339080600181540180825580915050600190039060005260206000200160009091909190916101000a81548173ffffffffffffffffffffffffffffffffffffffff021916908373ffffffffffffffffffffffffffffffffffffffff1602179055506001600260003373ffffffffffffffffffffffffffffffffffffffff1673ffffffffffffffffffffffffffffffffffffffff16815260200190815260200160002060006101000a81548160ff0219169083151502179055505b3373ffffffffffffffffffffffffffffffffffffffff167f73a19dd210f1a7f902193214c0ee91dd35ee5b4d920cba8d519eca65a7b488ca8383604051610e6a92919061165b565b60405180910390a25050565b60008060008373ffffffffffffffffffffffffffffffffffffffff1673ffffffffffffffffffffffffffffffffffffffff168152602001908152602001600020600001549050919050565b60018181548110610ed157600080fd5b906000526020600020016000915054906101000a900473ffffffffffffffffffffffffffffffffffffffff1681565b60055481565b6000600180549050905090565b60008060008373ffffffffffffffffffffffffffffffffffffffff1673ffffffffffffffffffffffffffffffffffffffff16815260200190815260200160002090506000816000015411156110475760008160020154670de0b6b3a76400006004548460000154610f8491906113c9565b610f8e919061143a565b610f989190611318565b90506000811115611045577f000000000000000000000000000000000000000000000000000000000000000073ffffffffffffffffffffffffffffffffffffffff1663ba0876528285306040518463ffffffff1660e01b81526004016110009392919061146b565b6020604051808303816000875af115801561101f573d6000803e3d6000fd5b505050506040513d601f19601f8201168201806040525081019061104391906114b7565b505b505b5050565b600080fd5b600073ffffffffffffffffffffffffffffffffffffffff82169050919050565b600061107b82611050565b9050919050565b61108b81611070565b811461109657600080fd5b50565b6000813590506110a881611082565b92915050565b6000602082840312156110c4576110c361104b565b5b60006110d284828501611099565b91505092915050565b6000819050919050565b6110ee816110db565b82525050565b600060208201905061110960008301846110e5565b92915050565b6000819050919050565b600061113461112f61112a84611050565b61110f565b611050565b9050919050565b600061114682611119565b9050919050565b60006111588261113b565b9050919050565b6111688161114d565b82525050565b6000602082019050611183600083018461115f565b92915050565b611192816110db565b811461119d57600080fd5b50565b6000813590506111af81611189565b92915050565b6000602082840312156111cb576111ca61104b565b5b60006111d9848285016111a0565b91505092915050565b60008115159050919050565b6111f7816111e2565b82525050565b600060208201905061121260008301846111ee565b92915050565b60006112238261113b565b9050919050565b61123381611218565b82525050565b600060208201905061124e600083018461122a565b92915050565b600060608201905061126960008301866110e5565b61127660208301856110e5565b61128360408301846110e5565b949350505050565b61129481611070565b82525050565b60006020820190506112af600083018461128b565b92915050565b7f4e487b7100000000000000000000000000000000000000000000000000000000600052601160045260246000fd5b60006112ef826110db565b91506112fa836110db565b9250828201905080821115611312576113116112b5565b5b92915050565b6000611323826110db565b915061132e836110db565b9250828203905081811115611346576113456112b5565b5b92915050565b600082825260208201905092915050565b7f496e73756666696369656e742073686172657300000000000000000000000000600082015250565b600061139360138361134c565b915061139e8261135d565b602082019050919050565b600060208201905081810360008301526113c281611386565b9050919050565b60006113d4826110db565b91506113df836110db565b92508282026113ed816110db565b91508282048414831517611404576114036112b5565b5b5092915050565b7f4e487b7100000000000000000000000000000000000000000000000000000000600052601260045260246000fd5b6000611445826110db565b9150611450836110db565b9250826114605761145f61140b565b5b828204905092915050565b600060608201905061148060008301866110e5565b61148d602083018561128b565b61149a604083018461128b565b949350505050565b6000815190506114b181611189565b92915050565b6000602082840312156114cd576114cc61104b565b5b60006114db848285016114a2565b91505092915050565b60006040820190506114f960008301856110e5565b61150660208301846111ee565b9392505050565b7f416d6f756e74206d757374206265203e20300000000000000000000000000000600082015250565b600061154360128361134c565b915061154e8261150d565b602082019050919050565b6000602082019050818103600083015261157281611536565b9050919050565b600060608201905061158e600083018661128b565b61159b602083018561128b565b6115a860408301846110e5565b949350505050565b6115b9816111e2565b81146115c457600080fd5b50565b6000815190506115d6816115b0565b92915050565b6000602082840312156115f2576115f161104b565b5b6000611600848285016115c7565b91505092915050565b600060408201905061161e600083018561128b565b61162b60208301846110e5565b9392505050565b600060408201905061164760008301856110e5565b611654602083018461128b565b9392505050565b600060408201905061167060008301856110e5565b61167d60208301846110e5565b939250505056fea26469706673582212206e428e9875ab9dda0e322a332ffd847096bee18c48da710023328ad4b87787ad64736f6c634300081c0033",
  "linkReferences": {},
  "deployedLinkReferences": {}
}