{
  "_format": "hh-sol-artifact-1",
  "contractName": "DisciplineVault",
  "sourceName": "contracts/DisciplineVault.sol",
  "abi": [
    {
      "inputs": [
        {
          "internalType": "address",
          "name": "_usdc",
          "type": "address"
        },
        {
          "internalType": "address",
          "name": "_yoVault",
          "type": "address"
        }
      ],
      "stateMutability": "nonpayable",
      "type": "constructor"
    },
    {
      "anonymous": false,
      "inputs": [
        {
          "indexed": true,
          "internalType": "address",
          "name": "user",
          "type": "address"
        },
        {
          "indexed": false,
          "internalType": "uint256",
          "name": "usdcAmount",
          "type": "uint256"
        },
        {
          "indexed": false,
          "internalType": "uint256",
          "name": "shares",
          "type": "uint256"
        },
        {
          "indexed": false,
          "internalType": "uint256",
          "name": "lockDays",
          "type": "uint256"
        }
      ],
      "name": "Deposited",
      "type": "event"
    },
    {
      "anonymous": false,
      "inputs": [
        {
          "indexed": false,
          "internalType": "uint256",
          "name": "penaltyShares",
          "type": "uint256"
        },
        {
          "indexed": false,
          "internalType": "uint256",
          "name": "remainingStakers",
          "type": "uint256"
        }
      ],
      "name": "PenaltyDistributed",
      "type": "event"
    },
    {
      "anonymous": false,
      "inputs": [
        {
          "indexed": true,
          "internalType": "address",
          "name": "user",
          "type": "address"
        },
        {
          "indexed": false,
          "internalType": "uint256",
          "name": "shares",
          "type": "uint256"
        }
      ],
      "name": "RewardsClaimed",
      "type": "event"
    },
    {
      "anonymous": false,
      "inputs": [
        {
          "indexed": true,
          "internalType": "address",
          "name": "user",
          "type": "address"
        },
        {
          "indexed": false,
          "internalType": "uint256",
          "name": "usdcAmount",
          "type": "uint256"
        },
        {
          "indexed": false,
          "internalType": "bool",
          "name": "early",
          "type": "bool"
        },
        {
          "indexed": false,
          "internalType": "uint256",
          "name": "penaltyShares",
          "type": "uint256"
        }
      ],
      "name": "Withdrawn",
      "type": "event"
    },
    {
      "inputs": [],
      "name": "LOCK_30",
      "outputs": [
        {
          "internalType": "uint256",
          "name": "",
          "type": "uint256"
        }
      ],
      "stateMutability": "view",
      "type": "function"
    },
    {
      "inputs": [],
      "name": "LOCK_60",
      "outputs": [
        {
          "internalType": "uint256",
          "name": "",
          "type": "uint256"
        }
      ],
      "stateMutability": "view",
      "type": "function"
    },
    {
      "inputs": [],
      "name": "LOCK_90",
      "outputs": [
        {
          "internalType": "uint256",
          "name": "",
          "type": "uint256"
        }
      ],
      "stateMutability": "view",
      "type": "function"
    },
    {
      "inputs": [],
      "name": "PENALTY_DENOMINATOR",
      "outputs": [
        {
          "internalType": "uint256",
          "name": "",
          "type": "uint256"
        }
      ],
      "stateMutability": "view",
      "type": "function"
    },
    {
      "inputs": [],
      "name": "PENALTY_NUMERATOR",
      "outputs": [
        {
          "internalType": "uint256",
          "name": "",
          "type": "uint256"
        }
      ],
      "stateMutability": "view",
      "type": "function"
    },
    {
      "inputs": [],
      "name": "PRECISION",
      "outputs": [
        {
          "internalType": "uint256",
          "name": "",
          "type": "uint256"
        }
      ],
      "stateMutability": "view",
      "type": "function"
    },
    {
      "inputs": [],
      "name": "accRewardPerShare",
      "outputs": [
        {
          "internalType": "uint256",
          "name": "",
          "type": "uint256"
        }
      ],
      "stateMutability": "view",
      "type": "function"
    },
    {
      "inputs": [],
      "name": "claimRewards",
      "outputs": [],
      "stateMutability": "nonpayable",
      "type": "function"
    },
    {
      "inputs": [
        {
          "internalType": "uint256",
          "name": "usdcAmount",
          "type": "uint256"
        },
        {
          "internalType": "uint256",
          "name": "lockDays",
          "type": "uint256"
        }
      ],
      "name": "deposit",
      "outputs": [],
      "stateMutability": "nonpayable",
      "type": "function"
    },
    {
      "inputs": [
        {
          "internalType": "uint256",
          "name": "",
          "type": "uint256"
        }
      ],
      "name": "depositors",
      "outputs": [
        {
          "internalType": "address",
          "name": "",
          "type": "address"
        }
      ],
      "stateMutability": "view",
      "type": "function"
    },
    {
      "inputs": [],
      "name": "getDepositorCount",
      "outputs": [
        {
          "internalType": "uint256",
          "name": "",
          "type": "uint256"
        }
      ],
      "stateMutability": "view",
      "type": "function"
    },
    {
      "inputs": [],
      "name": "getPenaltyPercent",
      "outputs": [
        {
          "internalType": "string",
          "name": "",
          "type": "string"
        }
      ],
      "stateMutability": "pure",
      "type": "function"
    },
    {
      "inputs": [
        {
          "internalType": "address",
          "name": "userAddr",
          "type": "address"
        }
      ],
      "name": "getPendingReward",
      "outputs": [
        {
          "internalType": "uint256",
          "name": "",
          "type": "uint256"
        }
      ],
      "stateMutability": "view",
      "type": "function"
    },
    {
      "inputs": [
        {
          "internalType": "address",
          "name": "userAddr",
          "type": "address"
        }
      ],
      "name": "getTimeRemaining",
      "outputs": [
        {
          "internalType": "uint256",
          "name": "",
          "type": "uint256"
        }
      ],
      "stateMutability": "view",
      "type": "function"
    },
    {
      "inputs": [
        {
          "internalType": "address",
          "name": "userAddr",
          "type": "address"
        }
      ],
      "name": "getTotalEarnedFromPenalties",
      "outputs": [
        {
          "internalType": "uint256",
          "name": "",
          "type": "uint256"
        }
      ],
      "stateMutability": "view",
      "type": "function"
    },
    {
      "inputs": [
        {
          "internalType": "address",
          "name": "userAddr",
          "type": "address"
        }
      ],
      "name": "getUserLockPeriod",
      "outputs": [
        {
          "internalType": "uint256",
          "name": "",
          "type": "uint256"
        }
      ],
      "stateMutability": "view",
      "type": "function"
    },
    {
      "inputs": [
        {
          "internalType": "address",
          "name": "userAddr",
          "type": "address"
        }
      ],
      "name": "getUserShares",
      "outputs": [
        {
          "internalType": "uint256",
          "name": "",
          "type": "uint256"
        }
      ],
      "stateMutability": "view",
      "type": "function"
    },
    {
      "inputs": [
        {
          "internalType": "address",
          "name": "",
          "type": "address"
        }
      ],
      "name": "isDepositor",
      "outputs": [
        {
          "internalType": "bool",
          "name": "",
          "type": "bool"
        }
      ],
      "stateMutability": "view",
      "type": "function"
    },
    {
      "inputs": [
        {
          "internalType": "address",
          "name": "userAddr",
          "type": "address"
        }
      ],
      "name": "isLocked",
      "outputs": [
        {
          "internalType": "bool",
          "name": "",
          "type": "bool"
        }
      ],
      "stateMutability": "view",
      "type": "function"
    },
    {
      "inputs": [],
      "name": "totalPenaltyCollected",
      "outputs": [
        {
          "internalType": "uint256",
          "name": "",
          "type": "uint256"
        }
      ],
      "stateMutability": "view",
      "type": "function"
    },
    {
      "inputs": [],
      "name": "totalShares",
      "outputs": [
        {
          "internalType": "uint256",
          "name": "",
          "type": "uint256"
        }
      ],
      "stateMutability": "view",
      "type": "function"
    },
    {
      "inputs": [],
      "name": "usdc",
      "outputs": [
        {
          "internalType": "contract IERC20",
          "name": "",
          "type": "address"
        }
      ],
      "stateMutability": "view",
      "type": "function"
    },
    {
      "inputs": [
        {
          "internalType": "address",
          "name": "",
          "type": "address"
        }
      ],
      "name": "users",
      "outputs": [
        {
          "internalType": "uint256",
          "name": "shares",
          "type": "uint256"
        },
        {
          "internalType": "uint256",
          "name": "depositTime",
          "type": "uint256"
        },
        {
          "internalType": "uint256",
          "name": "lockPeriod",
          "type": "uint256"
        },
        {
          "internalType": "uint256",
          "name": "rewardDebt",
          "type": "uint256"
        },
        {
          "internalType": "uint256",
          "name": "earnedFromPenalties",
          "type": "uint256"
        }
      ],
      "stateMutability": "view",
      "type": "function"
    },
    {
      "inputs": [
        {
          "internalType": "uint256",
          "name": "shareAmount",
          "type": "uint256"
        }
      ],
      "name": "withdraw",
      "outputs": [],
      "stateMutability": "nonpayable",
      "type": "function"
    },
    {
      "inputs": [],
      "name": "yoVault",
      "outputs": [
        {
          "internalType": "contract IYoVault",
          "name": "",
          "type": "address"
        }
      ],
      "stateMutability": "view",
      "type": "function"
    }
  ],
  "bytecode": "0x60c060405234801561001057600080fd5b50604051611f0e380380611f0e83398181016040528101906100329190610104565b8173ffffffffffffffffffffffffffffffffffffffff1660808173ffffffffffffffffffffffffffffffffffffffff16815250508073ffffffffffffffffffffffffffffffffffffffff1660a08173ffffffffffffffffffffffffffffffffffffffff16815250505050610144565b600080fd5b600073ffffffffffffffffffffffffffffffffffffffff82169050919050565b60006100d1826100a6565b9050919050565b6100e1816100c6565b81146100ec57600080fd5b50565b6000815190506100fe816100d8565b92915050565b6000806040838503121561011b5761011a6100a1565b5b6000610129858286016100ef565b925050602061013a858286016100ef565b9150509250929050565b60805160a051611d7b61019360003960008181610585015281816107ae01528181610a1401528181610f400152610fc5015260008181610b0d01528181610e630152610f040152611d7b6000f3fe608060405234801561001057600080fd5b50600436106101735760003560e01c80637544f425116100de578063ba0b861011610097578063dd95386e11610071578063dd95386e1461046c578063e2bbb1581461048a578063e4b2fb79146104a6578063f17bb462146104d657610173565b8063ba0b861014610400578063ba0cb22b1461041e578063bc5542c01461044e57610173565b80637544f42514610312578063845e09c114610342578063939d6237146103725780639fb0868d14610390578063a87430ba146103ae578063aaf5eb68146103e257610173565b80632f70d1ba116101305780632f70d1ba1461023c578063372500ab1461026c5780633a98ef39146102765780633e413bee146102945780634a4fbeec146102b25780634df9d6ba146102e257610173565b80630b0ad26a1461017857806313a4f575146101a857806319cdf1cb146101c65780631b8d2e9d146101e45780632bb38809146102025780632e1a7d4d14610220575b600080fd5b610192600480360381019061018d91906114e9565b6104f4565b60405161019f919061152f565b60405180910390f35b6101b0610577565b6040516101bd919061152f565b60405180910390f35b6101ce61057e565b6040516101db919061152f565b60405180910390f35b6101ec610583565b6040516101f991906115a9565b60405180910390f35b61020a6105a7565b604051610217919061152f565b60405180910390f35b61023a600480360381019061023591906115f0565b6105ad565b005b610256600480360381019061025191906114e9565b6108a6565b6040516102639190611638565b60405180910390f35b6102746108c6565b005b61027e610b05565b60405161028b919061152f565b60405180910390f35b61029c610b0b565b6040516102a99190611674565b60405180910390f35b6102cc60048036038101906102c791906114e9565b610b2f565b6040516102d99190611638565b60405180910390f35b6102fc60048036038101906102f791906114e9565b610ba7565b604051610309919061152f565b60405180910390f35b61032c600480360381019061032791906114e9565b610c3d565b604051610339919061152f565b60405180910390f35b61035c600480360381019061035791906114e9565b610c96565b604051610369919061152f565b60405180910390f35b61037a610ce1565b604051610387919061152f565b60405180910390f35b610398610ce7565b6040516103a5919061171f565b60405180910390f35b6103c860048036038101906103c391906114e9565b610d24565b6040516103d9959493929190611741565b60405180910390f35b6103ea610d5a565b6040516103f7919061152f565b60405180910390f35b610408610d66565b604051610415919061152f565b60405180910390f35b610438600480360381019061043391906114e9565b610d6d565b604051610445919061152f565b60405180910390f35b610456610db8565b604051610463919061152f565b60405180910390f35b610474610dbe565b604051610481919061152f565b60405180910390f35b6104a4600480360381019061049f9190611794565b610dc5565b005b6104c060048036038101906104bb91906115f0565b611388565b6040516104cd91906117e3565b60405180910390f35b6104de6113c7565b6040516104eb919061152f565b60405180910390f35b6000806000808473ffffffffffffffffffffffffffffffffffffffff1673ffffffffffffffffffffffffffffffffffffffff168152602001908152602001600020905060008160020154826001015461054d919061182d565b905080421061056157600092505050610572565b428161056d9190611861565b925050505b919050565b62278d0081565b602d81565b7f000000000000000000000000000000000000000000000000000000000000000081565b60055481565b60008060003373ffffffffffffffffffffffffffffffffffffffff1673ffffffffffffffffffffffffffffffffffffffff16815260200190815260200160002090508181600001541015610636576040517f08c379a000000000000000000000000000000000000000000000000000000000815260040161062d906118e1565b60405180910390fd5b61063f336113d4565b600081600201548260010154610655919061182d565b4210905060008390506000821561074b576103e8602d866106769190611901565b6106809190611972565b9050808561068e9190611861565b9150846003541180156106a15750600081115b1561074a57846003546106b49190611861565b670de0b6b3a7640000826106c89190611901565b6106d29190611972565b600460008282546106e3919061182d565b9250508190555080600560008282546106fc919061182d565b925050819055507f2d38dcc2d0e18aa434a8f1b17215fa9a77bfafd48910e87d5d5dbe34c686698481866003546107339190611861565b6040516107419291906119a3565b60405180910390a15b5b8484600001600082825461075f9190611861565b9250508190555084600360008282546107789190611861565b92505081905550670de0b6b3a7640000600454856000015461079a9190611901565b6107a49190611972565b84600301819055507f000000000000000000000000000000000000000000000000000000000000000073ffffffffffffffffffffffffffffffffffffffff1663ba0876528333306040518463ffffffff1660e01b8152600401610809939291906119cc565b6020604051808303816000875af1158015610828573d6000803e3d6000fd5b505050506040513d601f19601f8201168201806040525081019061084c9190611a18565b503373ffffffffffffffffffffffffffffffffffffffff167fa821cf7f61e3101e6aaa637b2126eab2a096dcca7e0d0e9dcc4c3b63719f045283858460405161089793929190611a45565b60405180910390a25050505050565b60026020528060005260406000206000915054906101000a900460ff1681565b60008060003373ffffffffffffffffffffffffffffffffffffffff1673ffffffffffffffffffffffffffffffffffffffff1681526020019081526020016000209050600081600001541161094f576040517f08c379a000000000000000000000000000000000000000000000000000000000815260040161094690611ac8565b60405180910390fd5b60008160030154670de0b6b3a764000060045484600001546109719190611901565b61097b9190611972565b6109859190611861565b9050600081116109ca576040517f08c379a00000000000000000000000000000000000000000000000000000000081526004016109c190611b34565b60405180910390fd5b808260040160008282546109de919061182d565b92505081905550670de0b6b3a76400006004548360000154610a009190611901565b610a0a9190611972565b82600301819055507f000000000000000000000000000000000000000000000000000000000000000073ffffffffffffffffffffffffffffffffffffffff1663ba0876528233306040518463ffffffff1660e01b8152600401610a6f939291906119cc565b6020604051808303816000875af1158015610a8e573d6000803e3d6000fd5b505050506040513d601f19601f82011682018060405250810190610ab29190611a18565b503373ffffffffffffffffffffffffffffffffffffffff167ffc30cddea38e2bf4d6ea7d3f9ed3b6ad7f176419f4963bd81318067a4aee73fe82604051610af9919061152f565b60405180910390a25050565b60035481565b7f000000000000000000000000000000000000000000000000000000000000000081565b6000806000808473ffffffffffffffffffffffffffffffffffffffff1673ffffffffffffffffffffffffffffffffffffffff16815260200190815260200160002090506000816000015403610b88576000915050610ba2565b80600201548160010154610b9c919061182d565b42109150505b919050565b6000806000808473ffffffffffffffffffffffffffffffffffffffff1673ffffffffffffffffffffffffffffffffffffffff16815260200190815260200160002090506000816000015403610c00576000915050610c38565b8060030154670de0b6b3a76400006004548360000154610c209190611901565b610c2a9190611972565b610c349190611861565b9150505b919050565b6000620151806000808473ffffffffffffffffffffffffffffffffffffffff1673ffffffffffffffffffffffffffffffffffffffff16815260200190815260200160002060020154610c8f9190611972565b9050919050565b60008060008373ffffffffffffffffffffffffffffffffffffffff1673ffffffffffffffffffffffffffffffffffffffff168152602001908152602001600020600401549050919050565b60045481565b60606040518060400160405280600481526020017f342e352500000000000000000000000000000000000000000000000000000000815250905090565b60006020528060005260406000206000915090508060000154908060010154908060020154908060030154908060040154905085565b670de0b6b3a764000081565b624f1a0081565b60008060008373ffffffffffffffffffffffffffffffffffffffff1673ffffffffffffffffffffffffffffffffffffffff168152602001908152602001600020600001549050919050565b6103e881565b6276a70081565b60008211610e08576040517f08c379a0000000000000000000000000000000000000000000000000000000008152600401610dff90611ba0565b60405180910390fd5b601e811480610e175750603c81145b80610e225750605a81145b610e61576040517f08c379a0000000000000000000000000000000000000000000000000000000008152600401610e5890611c0c565b60405180910390fd5b7f000000000000000000000000000000000000000000000000000000000000000073ffffffffffffffffffffffffffffffffffffffff166323b872dd3330856040518463ffffffff1660e01b8152600401610ebe93929190611c2c565b6020604051808303816000875af1158015610edd573d6000803e3d6000fd5b505050506040513d601f19601f82011682018060405250810190610f019190611c8f565b507f000000000000000000000000000000000000000000000000000000000000000073ffffffffffffffffffffffffffffffffffffffff1663095ea7b37f0000000000000000000000000000000000000000000000000000000000000000846040518363ffffffff1660e01b8152600401610f7d929190611cbc565b6020604051808303816000875af1158015610f9c573d6000803e3d6000fd5b505050506040513d601f19601f82011682018060405250810190610fc09190611c8f565b5060007f000000000000000000000000000000000000000000000000000000000000000073ffffffffffffffffffffffffffffffffffffffff16636e553f6584306040518363ffffffff1660e01b815260040161101e929190611ce5565b6020604051808303816000875af115801561103d573d6000803e3d6000fd5b505050506040513d601f19601f820116820180604052508101906110619190611a18565b905061106c336113d4565b6000620151808361107d9190611901565b9050816000803373ffffffffffffffffffffffffffffffffffffffff1673ffffffffffffffffffffffffffffffffffffffff16815260200190815260200160002060000160008282546110d0919061182d565b92505081905550426000803373ffffffffffffffffffffffffffffffffffffffff1673ffffffffffffffffffffffffffffffffffffffff16815260200190815260200160002060010181905550806000803373ffffffffffffffffffffffffffffffffffffffff1673ffffffffffffffffffffffffffffffffffffffff16815260200190815260200160002060020181905550670de0b6b3a76400006004546000803373ffffffffffffffffffffffffffffffffffffffff1673ffffffffffffffffffffffffffffffffffffffff168152602001908152602001600020600001546111bb9190611901565b6111c59190611972565b6000803373ffffffffffffffffffffffffffffffffffffffff1673ffffffffffffffffffffffffffffffffffffffff16815260200190815260200160002060030181905550816003600082825461121c919061182d565b92505081905550600260003373ffffffffffffffffffffffffffffffffffffffff1673ffffffffffffffffffffffffffffffffffffffff16815260200190815260200160002060009054906101000a900460ff16611330576001339080600181540180825580915050600190039060005260206000200160009091909190916101000a81548173ffffffffffffffffffffffffffffffffffffffff021916908373ffffffffffffffffffffffffffffffffffffffff1602179055506001600260003373ffffffffffffffffffffffffffffffffffffffff1673ffffffffffffffffffffffffffffffffffffffff16815260200190815260200160002060006101000a81548160ff0219169083151502179055505b3373ffffffffffffffffffffffffffffffffffffffff167f91ede45f04a37a7c170f5c1207df3b6bc748dc1e04ad5e917a241d0f52feada385848660405161137a93929190611d0e565b60405180910390a250505050565b6001818154811061139857600080fd5b906000526020600020016000915054906101000a900473ffffffffffffffffffffffffffffffffffffffff1681565b6000600180549050905090565b60008060008373ffffffffffffffffffffffffffffffffffffffff1673ffffffffffffffffffffffffffffffffffffffff16815260200190815260200160002090506000816000015411156114825760008160030154670de0b6b3a764000060045484600001546114459190611901565b61144f9190611972565b6114599190611861565b905060008111156114805780826004016000828254611478919061182d565b925050819055505b505b5050565b600080fd5b600073ffffffffffffffffffffffffffffffffffffffff82169050919050565b60006114b68261148b565b9050919050565b6114c6816114ab565b81146114d157600080fd5b50565b6000813590506114e3816114bd565b92915050565b6000602082840312156114ff576114fe611486565b5b600061150d848285016114d4565b91505092915050565b6000819050919050565b61152981611516565b82525050565b60006020820190506115446000830184611520565b92915050565b6000819050919050565b600061156f61156a6115658461148b565b61154a565b61148b565b9050919050565b600061158182611554565b9050919050565b600061159382611576565b9050919050565b6115a381611588565b82525050565b60006020820190506115be600083018461159a565b92915050565b6115cd81611516565b81146115d857600080fd5b50565b6000813590506115ea816115c4565b92915050565b60006020828403121561160657611605611486565b5b6000611614848285016115db565b91505092915050565b60008115159050919050565b6116328161161d565b82525050565b600060208201905061164d6000830184611629565b92915050565b600061165e82611576565b9050919050565b61166e81611653565b82525050565b60006020820190506116896000830184611665565b92915050565b600081519050919050565b600082825260208201905092915050565b60005b838110156116c95780820151818401526020810190506116ae565b60008484015250505050565b6000601f19601f8301169050919050565b60006116f18261168f565b6116fb818561169a565b935061170b8185602086016116ab565b611714816116d5565b840191505092915050565b6000602082019050818103600083015261173981846116e6565b905092915050565b600060a0820190506117566000830188611520565b6117636020830187611520565b6117706040830186611520565b61177d6060830185611520565b61178a6080830184611520565b9695505050505050565b600080604083850312156117ab576117aa611486565b5b60006117b9858286016115db565b92505060206117ca858286016115db565b9150509250929050565b6117dd816114ab565b82525050565b60006020820190506117f860008301846117d4565b92915050565b7f4e487b7100000000000000000000000000000000000000000000000000000000600052601160045260246000fd5b600061183882611516565b915061184383611516565b925082820190508082111561185b5761185a6117fe565b5b92915050565b600061186c82611516565b915061187783611516565b925082820390508181111561188f5761188e6117fe565b5b92915050565b7f496e73756666696369656e742073686172657300000000000000000000000000600082015250565b60006118cb60138361169a565b91506118d682611895565b602082019050919050565b600060208201905081810360008301526118fa816118be565b9050919050565b600061190c82611516565b915061191783611516565b925082820261192581611516565b9150828204841483151761193c5761193b6117fe565b5b5092915050565b7f4e487b7100000000000000000000000000000000000000000000000000000000600052601260045260246000fd5b600061197d82611516565b915061198883611516565b92508261199857611997611943565b5b828204905092915050565b60006040820190506119b86000830185611520565b6119c56020830184611520565b9392505050565b60006060820190506119e16000830186611520565b6119ee60208301856117d4565b6119fb60408301846117d4565b949350505050565b600081519050611a12816115c4565b92915050565b600060208284031215611a2e57611a2d611486565b5b6000611a3c84828501611a03565b91505092915050565b6000606082019050611a5a6000830186611520565b611a676020830185611629565b611a746040830184611520565b949350505050565b7f4e6f207368617265730000000000000000000000000000000000000000000000600082015250565b6000611ab260098361169a565b9150611abd82611a7c565b602082019050919050565b60006020820190508181036000830152611ae181611aa5565b9050919050565b7f4e6f207265776172647300000000000000000000000000000000000000000000600082015250565b6000611b1e600a8361169a565b9150611b2982611ae8565b602082019050919050565b60006020820190508181036000830152611b4d81611b11565b9050919050565b7f416d6f756e74206d757374206265203e20300000000000000000000000000000600082015250565b6000611b8a60128361169a565b9150611b9582611b54565b602082019050919050565b60006020820190508181036000830152611bb981611b7d565b9050919050565b7f4c6f636b206d7573742062652033302c2036302c206f72203930206461797300600082015250565b6000611bf6601f8361169a565b9150611c0182611bc0565b602082019050919050565b60006020820190508181036000830152611c2581611be9565b9050919050565b6000606082019050611c4160008301866117d4565b611c4e60208301856117d4565b611c5b6040830184611520565b949350505050565b611c6c8161161d565b8114611c7757600080fd5b50565b600081519050611c8981611c63565b92915050565b600060208284031215611ca557611ca4611486565b5b6000611cb384828501611c7a565b91505092915050565b6000604082019050611cd160008301856117d4565b611cde6020830184611520565b9392505050565b6000604082019050611cfa6000830185611520565b611d0760208301846117d4565b9392505050565b6000606082019050611d236000830186611520565b611d306020830185611520565b611d3d6040830184611520565b94935050505056fea264697066735822122037c425168fcf2f5c8d06bfa796b29426f7af9b7d6d2fb7c3a7086226457418f664736f6c634300081c0033",
  "linkReferences": {},
  "deployedLinkReferences": {}
}